{
  "address": "0x84282bF86f09082f3d34a70ABf47D2d3Cc7a9ffb",
  "abi": [
    {
      "inputs": [
        {
          "internalType": "address",
          "name": "_l2OutputOracle",
          "type": "address"
        }
      ],
      "stateMutability": "nonpayable",
      "type": "constructor"
    },
    {
      "inputs": [
        {
          "components": [
            {
              "internalType": "uint8",
              "name": "layout",
              "type": "uint8"
            },
            {
              "internalType": "address",
              "name": "target",
              "type": "address"
            },
            {
              "internalType": "uint256",
              "name": "length",
              "type": "uint256"
            },
            {
              "internalType": "bytes32",
              "name": "storageHash",
              "type": "bytes32"
            },
            {
              "internalType": "bytes",
              "name": "stateTrieWitness",
              "type": "bytes"
            },
            {
              "internalType": "uint256",
              "name": "l2OutputIndex",
              "type": "uint256"
            },
            {
              "components": [
                {
                  "internalType": "bytes32",
                  "name": "version",
                  "type": "bytes32"
                },
                {
                  "internalType": "bytes32",
                  "name": "stateRoot",
                  "type": "bytes32"
                },
                {
                  "internalType": "bytes32",
                  "name": "messagePasserStorageRoot",
                  "type": "bytes32"
                },
                {
                  "internalType": "bytes32",
                  "name": "latestBlockhash",
                  "type": "bytes32"
                }
              ],
              "internalType": "struct Types.OutputRootProof",
              "name": "outputRootProof",
              "type": "tuple"
            },
            {
              "components": [
                {
                  "internalType": "bytes32",
                  "name": "key",
                  "type": "bytes32"
                },
                {
                  "internalType": "bytes",
                  "name": "storageTrieWitness",
                  "type": "bytes"
                }
              ],
              "internalType": "struct IBedrockProofVerifier.StorageProof[]",
              "name": "storageProofs",
              "type": "tuple[]"
            }
          ],
          "internalType": "struct IBedrockProofVerifier.BedrockStateProof",
          "name": "proof",
          "type": "tuple"
        }
      ],
      "name": "getProofValue",
      "outputs": [
        {
          "internalType": "bytes",
          "name": "",
          "type": "bytes"
        }
      ],
      "stateMutability": "view",
      "type": "function"
    },
    {
      "inputs": [],
      "name": "l2OutputOracle",
      "outputs": [
        {
          "internalType": "contract IL2OutputOracle",
          "name": "",
          "type": "address"
        }
      ],
      "stateMutability": "view",
      "type": "function"
    }
  ],
  "transactionHash": "0x9db1d716dbbff72c8334c24cd0d01d7ad08e42dff86ac9958219306f354157c6",
  "args": [
    "0xE6Dfba0953616Bacab0c9A8ecb3a9BBa77FC15c0"
  ],
  "numDeployments": 1,
  "solcInputHash": "0445fa0d01b10caeaef9d49402886916",
  "bytecode": "0x60a06040523462000040575b6200001f6200001962000106565b62000155565b604051612f6262000166823960805181818160d001526106e50152612f6290f35b62000049600080fd5b6200000b565b600080fd5b50634e487b7160e01b600052604160045260246000fd5b90601f01601f191681019081106001600160401b038211176200008d57604052565b6200009762000054565b604052565b90620000b3620000ab60405190565b92836200006b565b565b6001600160a01b031690565b90565b6001600160a01b038116036200004f57565b90505190620000b382620000c4565b90620000c19160208183031215620000d65762000100600080fd5b620000d6565b620000c1620030c8803803806200011d816200009c565b928339810190620000e5565b620000c190620000b5906001600160a01b031682565b620000c19062000129565b620000c1906200013f565b62000160906200014a565b60805256fe60806040526004361015610018575b610016600080fd5b005b60003560e01c80634d9f15591461004057638f46c50d0361000e5761003b61057d565b61000e565b5061003b6100b5565b600080fd5b600091031261005957565b610061600080fd5b565b6100779061007a906001600160a01b031682565b90565b6001600160a01b031690565b61007790610063565b61007790610086565b6100a19061008f565b9052565b6020810192916100619190610098565b50346100f9575b6100c736600461004e565b604051806100f57f0000000000000000000000000000000000000000000000000000000000000000826100a5565b0390f35b610101600080fd5b6100bc565b601f01601f191690565b50634e487b7160e01b600052604160045260246000fd5b90601f01601f1916810190811067ffffffffffffffff82111761014957604052565b610151610110565b604052565b9061006161016360405190565b9283610127565b60ff81165b0361004957565b905035906100618261016a565b61016f8161007a565b9050359061006182610183565b8061016f565b9050359061006182610199565b6101cb60209167ffffffffffffffff81116101cf57601f01601f191690565b0190565b610106610110565b90826000939282370152565b929190610061916101fb6101f6836101ac565b610156565b94828652602086019183820111156101d757610215600080fd5b6101d7565b906100779181601f82011215610236575b6020813591016101e3565b61023e600080fd5b61022b565b9190916080818403126102a3575b61029d61025e6080610156565b93600061026b828561019f565b90860152602061027d8282860161019f565b90860152604061028f8282860161019f565b90860152606080930161019f565b90830152565b6102ab600080fd5b610251565b6020809167ffffffffffffffff81116102c857020190565b6102d0610110565b020190565b919061031d90604084820312610331575b6102f06040610156565b9360006102fd838361019f565b9086015260208101359067ffffffffffffffff8211610324575b0161021a565b6020830152565b61032c600080fd5b610317565b610339600080fd5b6102e6565b9092919261034e6101f6826102b0565b93818552602080860192028301928184116103ae575b80925b848410610375575050505050565b6020809161039685873567ffffffffffffffff81116103a1575b86016102d5565b815201930192610367565b6103a9600080fd5b61038f565b6103b6600080fd5b610364565b906100779181601f820112156103d7575b60208135910161033e565b6103df600080fd5b6103cc565b91906104ae90610160848203126104cf575b610401610100610156565b93600061040e8383610176565b9086015260206104208382840161018c565b9086015260406104328382840161019f565b9086015260606104448382840161019f565b9086015261046882608083013567ffffffffffffffff81116104c2575b830161021a565b608086015260a061047b8382840161019f565b9086015260c061048d83828401610243565b908601526101408101359067ffffffffffffffff82116104b5575b016103bb565b60e0830152565b6104bd600080fd5b6104a8565b6104ca600080fd5b610461565b6104d7600080fd5b6103f6565b9061007791602081830312610512575b80359067ffffffffffffffff8211610505575b016103e4565b61050d600080fd5b6104ff565b61051a600080fd5b6104ec565b60005b8381106105325750506000910152565b8181015183820152602001610522565b6105636101066020936101cb93610557815190565b80835293849260200190565b9586910161051f565b602080825261007792910190610542565b50346105a6575b6100f561059a6105953660046104dc565b6106d3565b6040519182918261056c565b6105ae600080fd5b610584565b5190565b9050519061006182610199565b6fffffffffffffffffffffffffffffffff811661016f565b90505190610061826105c4565b919091606081840312610631575b61029d6106046060610156565b93600061061182856105b7565b908601526020610623828286016105dc565b9086015260408093016105dc565b610639600080fd5b6105f7565b9061007791606081830312156105e957610656600080fd5b6105e9565b506040513d6000823e3d90fd5b602080825260139082015272125b9d985b1a59081bdd5d1c1d5d081c9bdbdd606a1b604082015260600190565b1561069c57565b60405162461bcd60e51b8152806106b560048201610668565b0390fd5b5160ff1690565b6106cd6100776100779290565b60ff1690565b61077a61075d600061074360606107097f000000000000000000000000000000000000000000000000000000000000000061008f565b63a25ae5579061073561071e60a08a016105b3565b9261072860405190565b9586948593849360e01b90565b835260048301526024820190565b03915afa9081156107ee575b82916107c0575b50016105b3565b61077461077061007760c086015161082c565b9190565b14610695565b61078381610972565b9061078d816106b9565b6107a161079a60006106c0565b9160ff1690565b146107bc57906107b6604061007793016105b3565b906108a0565b5090565b6107e1915060603d81116107e7575b6107d98183610127565b81019061063e565b38610756565b503d6107cf565b6107f661065b565b61074f565b6108286100619461082160609498979561081a608086019a6000870152565b6020850152565b6040830152565b0152565b61087d610838826105b3565b610844602084016105b3565b906108716108606060610859604088016105b3565b96016105b3565b6040519586946020860194856107fb565b90810382520382610127565b61088f610888825190565b9160200190565b2090565b6100776100776100779290565b9060006108ac81610893565b82146108c557916108bf61007793610893565b90612e8c565b505090565b906108d76101f6836101ac565b918252565b369037565b906100616108f76108f1846108ca565b936101ac565b601f1901602084016108dc565b50634e487b7160e01b600052601160045260246000fd5b600190600019811461092b570190565b6101cb610904565b50634e487b7160e01b600052603260045260246000fd5b9060208091610957845190565b811015610965575b02010190565b61096d610933565b61095f565b9061097d6000610893565b610986816108e1565b9161099084610ac5565b91925b60e085016109a361007782515190565b8510156109dc576109ce60e0926109c86109c1886109d4955161094a565b5187612daf565b90612e1d565b9461091b565b939050610993565b509350915050565b610077905161007a565b60601b90565b610077906109ee565b610a096100a19161007a565b6109f4565b6101cb816014936109fd565b6020808252602e908201527f4163636f756e74206973206e6f742070617274206f66207468652070726f766960408201526d191959081cdd185d19481c9bdbdd60921b606082015260800190565b15610a6f57565b60405162461bcd60e51b8152806106b560048201610a1a565b610aa2610a9d610a96835190565b9260200190565b6105b3565b9060208110610aaf575090565b610ac190600019906020036008021b90565b1690565b610b53610b4d610b3d610b38610b3161007795610ae0600090565b50610aed602082016109e4565b90610b16610afa60405190565b8093610b0a602083019182610a0e565b90810382520383610127565b610b2b602060c06080840151930151016105b3565b91611992565b9190610a68565b610b58565b610b476002610893565b9061094a565b5161108d565b610a88565b610b6d61007791610b67606090565b50610c2a565b610e16565b6100776040610156565b610b84610b72565b906000825260006020830152565b610077610b7c565b6020808252604a908201527f524c505265616465723a206c656e677468206f6620616e20524c50206974656d60408201527f206d7573742062652067726561746572207468616e207a65726f20746f206265606082015269206465636f6461626c6560b01b608082015260a00190565b15610c1157565b60405162461bcd60e51b8152806106b560048201610b9a565b610c32610b92565b50610077610c3e825190565b91610c57600093610c5161077086610893565b11610c0a565b61031d610c6660208301925190565b610c6e610b72565b94850152565b50634e487b7160e01b600052602160045260246000fd5b60021115610c9557565b610061610c74565b9061006182610c8b565b60208082526038908201527f524c505265616465723a206465636f646564206974656d207479706520666f7260408201527f206c697374206973206e6f742061206c697374206974656d0000000000000000606082015260800190565b15610d0b57565b60405162461bcd60e51b8152806106b560048201610ca7565b91908201809211610d3157565b610061610904565b60208082526032908201527f524c505265616465723a206c697374206974656d2068617320616e20696e76616040820152713634b2103230ba30903932b6b0b4b73232b960711b606082015260800190565b15610d9257565b60405162461bcd60e51b8152806106b560048201610d39565b6100776020610893565b906108d76101f6836102b0565b60005b828110610dd157505050565b602090610ddc610b92565b8184015201610dc5565b90610061610dfc610df684610db5565b936102b0565b601f190160208401610dc2565b91908203918211610d3157565b610e4d610e62610e258361169a565b92919390610e47600194610e41610e3b87610c9d565b91610c9d565b14610d04565b84610d24565b610e5c610770610077876105b3565b14610d8b565b610e72610e6d610dab565b610de6565b92600082610e7f82610893565b94905b610e90575b50505050815290565b81830190610ea0610077836105b3565b811015610f965780610eb286936105b3565b90610ebc91610e09565b602085019082610ecb836105b3565b610ed490610893565b90610ede91610d24565b610ee790610893565b610eef610b72565b91610efa9087840152565b6020820152610f089061169a565b5097909183610f17848b610d24565b91610f21906105b3565b610f2a90610893565b90610f3491610d24565b610f3d90610893565b610f45610b72565b91610f509088840152565b6020820152610f5f828b61094a565b52610f6a818a61094a565b50610f7484610893565b610f7d91610d24565b96610f8791610d24565b610f9091610d24565b90610e82565b50610e87565b60208082526039908201527f524c505265616465723a206465636f646564206974656d207479706520666f7260408201527f206279746573206973206e6f7420612064617461206974656d00000000000000606082015260800190565b1561100057565b60405162461bcd60e51b8152806106b560048201610f9c565b60208082526034908201527f524c505265616465723a2062797465732076616c756520636f6e7461696e732060408201527330b71034b73b30b634b2103932b6b0b4b73232b960611b606082015260800190565b1561107457565b60405162461bcd60e51b8152806106b560048201611019565b6110e86110d26110ee6020610077946110a4606090565b506110ae8161169a565b6110cb60009893979298916110c5610e3b84610c9d565b14610ff9565b83016105b3565b6110e26107706100778989610d24565b1461106d565b016105b3565b611926565b6020808252604d90820152600080516020612f0d83398151915260408201527f74206265203e207468616e206c656e677468206f66206c697374206c656e677460608201526c6820286c6f6e67206c6973742960981b608082015260a00190565b1561115b57565b60405162461bcd60e51b8152806106b5600482016110f3565b6111876111816100779290565b60f81b90565b6001600160f81b03191690565b6020808252604890820152600080516020612f0d83398151915260408201527f74206e6f74206861766520616e79206c656164696e67207a65726f7320286c6f6060820152676e67206c6973742960c01b608082015260a00190565b156111f757565b60405162461bcd60e51b8152806106b560048201611194565b6020808252604690820152600080516020612f0d83398151915260408201527f742062652067726561746572207468616e20353520627974657320286c6f6e67606082015265206c6973742960d01b608082015260a00190565b1561127157565b60405162461bcd60e51b8152806106b560048201611210565b6020808252604a90820152600080516020612f0d83398151915260408201527f742062652067726561746572207468616e20746f74616c206c656e67746820286060820152696c6f6e67206c6973742960b01b608082015260a00190565b156112ef57565b60405162461bcd60e51b8152806106b56004820161128a565b6020808252604a90820152600080516020612f0d83398151915260408201527f742062652067726561746572207468616e206c697374206c656e677468202873606082015269686f7274206c6973742960b01b608082015260a00190565b1561136d57565b60405162461bcd60e51b8152806106b560048201611308565b6020808252605190820152600080516020612f0d83398151915260408201527f74206265203e207468616e206c656e677468206f6620737472696e67206c656e60608201527067746820286c6f6e6720737472696e672960781b608082015260a00190565b156113f257565b60405162461bcd60e51b8152806106b560048201611386565b6020808252604a90820152600080516020612f0d83398151915260408201527f74206e6f74206861766520616e79206c656164696e67207a65726f7320286c6f6060820152696e6720737472696e672960b01b608082015260a00190565b1561147057565b60405162461bcd60e51b8152806106b56004820161140b565b6020808252604890820152600080516020612f0d83398151915260408201527f742062652067726561746572207468616e20353520627974657320286c6f6e6760608201526720737472696e672960c01b608082015260a00190565b156114ec57565b60405162461bcd60e51b8152806106b560048201611489565b6020808252604c90820152600080516020612f0d83398151915260408201527f742062652067726561746572207468616e20746f74616c206c656e677468202860608201526b6c6f6e6720737472696e672960a01b608082015260a00190565b1561156c57565b60405162461bcd60e51b8152806106b560048201611505565b6020808252604e90820152600080516020612f0d83398151915260408201527f742062652067726561746572207468616e20737472696e67206c656e6774682060608201526d2873686f727420737472696e672960901b608082015260a00190565b156115ee57565b60405162461bcd60e51b8152806106b560048201611585565b6020808252604d908201527f524c505265616465723a20696e76616c6964207072656669782c2073696e676c60408201527f652062797465203c203078383020617265206e6f74207072656669786564202860608201526c73686f727420737472696e672960981b608082015260a00190565b1561168157565b60405162461bcd60e51b8152806106b560048201611607565b6000906116a6816105b3565b916116b9600093610c5161077086610893565b6116c5602083016105b3565b8051841a916116d4607f610893565b83116116f357505050506001916107706116ed83610893565b93610893565b60b795939561170181610893565b84116117995750509061176961176e9261173b6117348761172d60809661172788610893565b90610e09565b99016105b3565b88106115e7565b6001908101519092906001600160f81b03191661175784610893565b881415918215611773575b505061167a565b610893565b929190565b61179091925061178290611174565b916001600160f81b03191690565b10153880611762565b6117a760bf97949297610893565b821161184957600161176e9493876117c861183a9561172761182496610893565b9501986117de6117d78b6105b3565b87106113eb565b81830151611803906001600160f81b0319166117fc6117828c611174565b1415611469565b50015183600802610100031c96610a9d61181d6037610893565b89116114e5565b6118346107706100778986610d24565b11611565565b6118446001610893565b610d24565b5091939460f761185881610893565b84116118925750505061188691929361187861187f9261172760c0610893565b94016105b3565b8310611366565b60019061176e82610893565b916001916118e0886118ad6119179761172761190198610893565b9801986118c36118bc8b6105b3565b8a10611154565b6118d961178260ff60f81b878701511692611174565b14156111f0565b50015184600802610100031c94610a9d6118fa6037610893565b871161126a565b6119116107706100778787610d24565b116112e8565b61176e60019261184484610893565b91611930816108e1565b9260009261193d84610893565b831461198b5761184461194f92610893565b81602085019184905b82821061197657501161196c575b50505090565b0152388080611966565b91508060209183015181850152018391611958565b5050505090565b906119a96119ae93926119a3600090565b50612aa2565b611a1b565b9091565b6020808252601a908201527f50726f76696465642070726f6f6620697320696e76616c69642e000000000000604082015260600190565b156119f057565b60405162461bcd60e51b8152806106b5600482016119b2565b61007760006108ca565b610077611a09565b90611a40611a669493611a39611a4893611a33600090565b506120b4565b9384611d29565b959192905190565b611a556107706000610893565b149485908615611a91575b506119e9565b8315611a875761007791610b47611a81926117276001610893565b51612a0f565b5050610077611a13565b905038611a60565b611aa1610b72565b906060825260606020830152565b610077611a99565b6020808252601a908201527f496e76616c696420696e7465726e616c206e6f64652068617368000000000000604082015260600190565b15611af557565b60405162461bcd60e51b8152806106b560048201611ab7565b6020808252601b908201527f496e76616c6964206c6172676520696e7465726e616c20686173680000000000604082015260600190565b15611b4c57565b60405162461bcd60e51b8152806106b560048201611b0e565b602080825260119082015270092dcecc2d8d2c840e4dedee840d0c2e6d607b1b604082015260600190565b15611b9757565b60405162461bcd60e51b8152806106b560048201611b65565b6100776010610893565b610077611bc5611bb0565b611bcf6001610893565b90610d24565b6100776002610893565b6020808252601d908201527f526563656976656420616e20756e706172736561626c65206e6f64652e000000604082015260600190565b906001602091610957845190565b516001600160f81b03191690565b6106cd6100776100779260ff1690565b6100779060f81c611c32565b50634e487b7160e01b600052601260045260246000fd5b611c719060ff1661079a565b908115611c7c570690565b611c84611c4e565b0690565b611c949060ff1661079a565b90039060ff8211610d3157565b6100776100776100779260ff1690565b61007760026106c0565b61007760036106c0565b61007760006106c0565b61007760016106c0565b60208082526026908201527f52656365697665642061206e6f6465207769746820616e20756e6b6e6f776e206040820152650e0e4caccd2f60d31b606082015260800190565b6100776080611174565b92906000611d3f611d3982610893565b92612cd6565b9390828096611d4c611aaf565b5081975b611d5b610077835190565b89101561206457611d7790611d708a8461094a565b5196610d24565b978895611d8e611d876001610893565b8095610d24565b99611d9886610893565b810361201b57611db886830151611db0610888825190565b208814611b90565b6020820191611dc683515190565b611dd4610770610077611bba565b03611e61575050611de66100778a5190565b8703611e1457505050505090610770915b611e0d610770610077611e08611d1f565b611187565b1493612aca565b8699939550611e4b611e5191610b47611e43611e3e611e39611e5897989a9c8f611c16565b611c24565b611c42565b915191611ca1565b51612982565b949161091b565b97949290611d50565b9094979650611e74829492969396515190565b611e82610770610077611bd5565b0361200257611e90906129e9565b94611ee0611eac611e3e611e39611ea687610893565b8a611c16565b96611eda611ed56002611ed0611eca611ec4836106c0565b8d611c65565b916106c0565b611c88565b611ca1565b90612aca565b97611eeb868c612aca565b94611ef6868b612a33565b97611f026106cd611cb1565b60ff8216148015611fec575b15611f6157505050505050611f24610770955190565b83149081611f56575b50611f45575b5050611f40611e08611d1f565b611df7565b611f4f9250610d24565b3880611f33565b518391501438611f2d565b91949899929550929550611f766106cd611cc5565b60ff821614908115611fd5575b5015611fbc57518514611fa55750505050505061077090611f40611e08611d1f565b611e4b611e5892611e51929b959697989b5161094a565b60405162461bcd60e51b8152806106b560048201611cd9565b9050611fe561079a6106cd611ccf565b1438611f83565b50611ff86106cd611cbb565b60ff821614611f0e565b60405162461bcd60e51b8152806106b560048201611bdf565b81860180515161202e6107706020610893565b106120505761204b9051612043610888825190565b208814611b45565b611db8565b61205d61204b9151612c5c565b8814611aee565b50509550509061077091611df7565b60005b82811061208257505050565b60209061208d611aaf565b8184015201612076565b906100616120a7610df684610db5565b601f190160208401612073565b6120bd90612141565b6120cd6120c8825190565b612097565b906000906120da82610893565b6120e5610077835190565b81101561196657806121036120fd61213c938561094a565b5161242d565b61212161210f82612141565b61031d61211a610b72565b9388850152565b61212b828761094a565b52612136818661094a565b5061091b565b6120da565b61215661007791612150606090565b5061215b565b612286565b612163610b92565b5061007761217360208301925190565b9161031d61217f610b72565b938452565b60208082526017908201527f496e76616c696420524c50206c6973742076616c75652e000000000000000000604082015260600190565b156121c257565b60405162461bcd60e51b8152806106b560048201612184565b60005b8281106121ea57505050565b6020906121f5610b92565b81840152016121de565b9061006161220f610df684610db5565b601f1901602084016121db565b6020808252602a908201527f50726f766964656420524c50206c6973742065786365656473206d6178206c6960408201526939ba103632b733ba341760b11b606082015260800190565b1561226d57565b60405162461bcd60e51b8152806106b56004820161221c565b61228f816126b9565b90506122a96001916122a3610e3b84610c9d565b146121bb565b6122b1610dab565b926122bb846121ff565b93826000916122c983610893565b95915b6122db575b5050505050815290565b828401916122eb610077846105b3565b8110156123d0578086936122fc8490565b891061230790612266565b612310906105b3565b9061231a91610e09565b602086019082612329836105b3565b9061233391610d24565b61233b610b72565b916123469088840152565b6020820152612354906126b9565b5098909183612363848c610d24565b9161236d906105b3565b9061237791610d24565b61237f610b72565b9161238a9089840152565b6020820152612399828c61094a565b526123a4818b61094a565b506123ae85610893565b6123b791610d24565b976123c191610d24565b6123ca91610d24565b916122cc565b506122d1565b60208082526018908201527f496e76616c696420524c502062797465732076616c75652e0000000000000000604082015260600190565b1561241457565b60405162461bcd60e51b8152806106b5600482016123d6565b610077906110e861245a6020612442846126b9565b612454610e3b60009894979398610c9d565b1461240d565b612888565b60208082526018908201527f524c50206974656d2063616e6e6f74206265206e756c6c2e0000000000000000604082015260600190565b1561249d57565b60405162461bcd60e51b8152806106b56004820161245f565b6020808252601d908201527f496e76616c696420524c50206c6f6e67206c697374206c656e6774682e000000604082015260600190565b156124f457565b60405162461bcd60e51b8152806106b5600482016124b6565b60208082526016908201527524b73b30b634b210292628103637b733903634b9ba1760511b604082015260600190565b1561254457565b60405162461bcd60e51b8152806106b56004820161250d565b60208082526017908201527f496e76616c696420524c502073686f7274206c6973742e000000000000000000604082015260600190565b1561259b57565b60405162461bcd60e51b8152806106b56004820161255d565b6020808252601f908201527f496e76616c696420524c50206c6f6e6720737472696e67206c656e6774682e00604082015260600190565b156125f257565b60405162461bcd60e51b8152806106b5600482016125b4565b60208082526018908201527f496e76616c696420524c50206c6f6e6720737472696e672e0000000000000000604082015260600190565b1561264957565b60405162461bcd60e51b8152806106b56004820161260b565b60208082526019908201527f496e76616c696420524c502073686f727420737472696e672e00000000000000604082015260600190565b156126a057565b60405162461bcd60e51b8152806106b560048201612662565b6000906126c5816105b3565b916126de6000936126d861077086610893565b11612496565b6126ea602083016105b3565b908151841a916126fa607f610893565b831161271357505050506001916107706116ed83610893565b60b795939561272181610893565b8411612757575050506127468361273f61274d936117276080610893565b95016105b3565b8410612699565b61176e6001610893565b61276660bf9794929397610893565b82116127c65761176e93928661278561183a946117276127b095610893565b94019761279b6127948a6105b3565b86106125eb565b506001846020036101000a91015104966105b3565b6127c06107706100778986610d24565b11612642565b5091949060f79493946127d881610893565b84116127fd57505050611886916118786127f69261172760c0610893565b8310612594565b936128146119179461172761283f95999897610893565b95019561282a612823886105b3565b87106124ed565b506001856020036101000a91015104946105b3565b61284f6107706100778787610d24565b1161253d565b811561285f570490565b612867611c4e565b0490565b90611c71565b0390565b906128836107706100779390565b900a90565b90612892836108e1565b9061289b825190565b926000936128ab61077086610893565b1461297a57906128bd91959395610d24565b916000916128ce6020820196610893565b935b60206128e76100776128e183610893565b89612855565b861015612919578161290c6129056109ce9361291295518c52610893565b8092610d24565b98610d24565b93956128d0565b509261296b929694509461295b91955061295661294b6101009261295161294b60209261294584610893565b9061286b565b91610893565b612871565b612875565b6129656001610893565b90612871565b82519151811916911617905290565b505091505090565b6100779061298f816105b3565b61299c6107706020610893565b10156129b0576129ab906129b9565b612c5c565b6129ab9061242d565b61007790610077906129cd602082016105b3565b6129e36129dd60008094016105b3565b92610893565b90612888565b612a0a6120fd6020610077936129fd606090565b500151610b476000610893565b612cd6565b6120fd602061007792612a20606090565b5001518051610b47906117276001610893565b612a3d6000610893565b8151811080612a8d575b80612a66575b15612a6057612a5b9061091b565b612a3d565b91505090565b50612a74611e398284611c16565b612a87611782611187611e398588611c16565b14612a4d565b5082518110612a47565b6101cb816020939052565b612aad610888825190565b20610077612aba60405190565b8092610871602083019182612a97565b612ad5610077825190565b821015611a875781612af161007793612aec845190565b610e09565b91612b8a565b6020808252600e908201526d736c6963655f6f766572666c6f7760901b604082015260600190565b15612b2657565b60405162461bcd60e51b8152806106b560048201612af7565b602080825260119082015270736c6963655f6f75744f66426f756e647360781b604082015260600190565b15612b7157565b60405162461bcd60e51b8152806106b560048201612b3f565b9091601f906060612baa612ba0610e4785610893565b83905b1015612b1f565b612bbe612bb78387610d24565b8690612ba3565b612be0612bc9855190565b612bd9610770610077868a610d24565b1015612b6a565b5080612bfb5750505050604051600081526020810160405290565b60405193828216801560200281870181019590910101018382015b808510612c2c5750508352801991011660405290565b9093602080918651815201940190612c16565b9061007791602081830312156105b757612c57600080fd5b6105b7565b600090612c67815190565b91602092612c7761077085610893565b10612c94575061007791612c89825190565b818301019101612c3f565b50015190565b81810292918115918404141715610d3157565b61118790612cc16117826100779460ff1690565b901c90565b6111876111816100779260ff1690565b908151612cf6612cf1600292612ceb84610893565b90612c9a565b6108e1565b90600093612d0385610893565b612d0e610077835190565b811015612da75780612d39612d29611e39612da29486611c16565b612d3360046106c0565b90612cad565b612d58612d4e612d4887610893565b84612c9a565b91891a9187611c16565b53612d84612d7f612d6f611e3e611e398588611c16565b612d7960106106c0565b90611c65565b612cc6565b612d9c612d4e611bc5612d9688610893565b85612c9a565b5361091b565b612d03565b509193505050565b612dfb90612e0192612dbf606090565b506020612dcb826105b3565b91612df3612dd860405190565b8094612de78583019182612a97565b90810382520384610127565b015190611992565b91901590565b6100775761007790612e1861007791610b67606090565b61108d565b604051918151808452602084019081019060208401905b828110612e7c57505081519084518201855260208282019301905b838110612e6c57505091519091011501601f01601f191660405290565b8151815260209182019101612e4f565b8151815260209182019101612e34565b9091601f906060612ea2612ba0610e4785610893565b612ead612bc9855190565b5080612ec85750505050604051600081526020810160405290565b60405193828216801560200281870181019590910101018382015b808510612ef95750508352801991011660405290565b9093602080918651815201940190612ee356fe524c505265616465723a206c656e677468206f6620636f6e74656e74206d7573a2646970667358221220450bd3030b39f31fe3c3c9d5ca0e0d46020206e442888ad8315b9f89b60490b364736f6c63430008110033",
  "devdoc": {
    "kind": "dev",
    "methods": {
      "getProofValue((uint8,address,uint256,bytes32,bytes,uint256,(bytes32,bytes32,bytes32,bytes32),(bytes32,bytes)[]))": {
        "details": "This function validates the provided BedrockStateProof and returns the value of the slot or slots included in the proof.",
        "params": {
          "proof": "The BedrockStateProof struct containing the necessary proof data"
        },
        "returns": {
          "_0": "result The value of the slot or slots included in the proof"
        }
      }
    },
    "version": 1
  },
  "userdoc": {
    "kind": "user",
    "methods": {
      "getProofValue((uint8,address,uint256,bytes32,bytes,uint256,(bytes32,bytes32,bytes32,bytes32),(bytes32,bytes)[]))": {
        "notice": "Get the proof value for the provided BedrockStateProof"
      }
    },
    "version": 1
  },
  "storageLayout": {
    "storage": [],
    "types": null
  }
}